:100000000C942A000C9434000C9434000C943400AA
:100010000C9434000C9434000C9434000C94340090
:100020000C9434000C9434000C9434000C94340080
:100030000C9434000C9434000C9434000C94340070
:100040000C9434000C9434000C9434000C94340060
:100050000C94340011241FBECFE5D4E0DEBFCDBF29
:100060000E9483000C9490000C9400009C01207F5F
:1000700033272C5F28BBE9EFF0E03197F1F700C0A0
:10008000000098B3945098BB8295807F8C5F88BBAA
:1000900089EF90E00197F1F700C0000088B3845029
:1000A00088BB089582E090E00E94360088E290E0EC
:1000B0000E9436008CE090E00E94360086E090E0DE
:1000C0000E94360008959C01207F33272B5F28BBB8
:1000D000E9EFF0E03197F1F700C0000028B32550B8
:1000E00028BB82959295907F9827807F98278B5F79
:1000F00088BB89EF90E00197F1F700C0000088B35A
:10010000855088BB08958FEF87BB0E94520084E81A
:1001100090E00E94360081E490E00E946300F7CFF7
:04012000F894FFCF81
:00000001FF
